:020000040800F2
:100000000000022095040008E5040008E50400084B
:10001000E5040008E5040008E5040008000000000D
:10002000000000000000000000000000E5040008DF
:10003000E504000800000000E5040008E5040008ED
:10004000E5040008E5040008E5040008E5040008EC
:10005000E5040008E5040008E5040008E5040008DC
:10006000E5040008E5040008E5040008E5040008CC
:10007000E5040008E5040008E5040008E5040008BC
:10008000E5040008E5040008E5040008000000009D
:10009000000000000000000000000000E50400086F
:1000A000E5040008E5040008E5040008E50400088C
:1000B000E5040008E5040008E5040008E50400087C
:1000C000E5040008E5040008E5040008E50400086C
:1000D000E5040008E5040008E5040008000000004D
:1000E000E5040008E5040008E5040008000000003D
:1000F000000000000000000000000000E50400080F
:1001000000000000E5040008E5040008E50400081C
:1001100000000000000000000000000000000000DF
:10012000E5040008E5040008E5040008E50400080B
:10013000E5040008000000000000000000000000CE
:10014000000000000000000000000000E5040008BE
:10015000E5040008E5040008E5040008E5040008DB
:10016000E5040008E50400080000000000000000AD
:10017000000000000000000000000000000000007F
:1001800000000000E504000800000000000000007E
:08019000E5040008E504000885
:1001980010B5054C237833B9044B13B10448AFF3B9
:1001A80000800123237010BD04000020000000001F
:1001B8003005000808B5034B1BB103490348AFF3EA
:1001C800008008BD0000000008000020300500087D
:1001D800034AD2F8883043F47003C2F88830704775
:1001E80000ED00E008B500F08DF808E03E498A69A6
:1001F80042F080028A61022B1FD0032B49D03B4C6E
:100208003B4B3C4A3C49204600F0BEF82378012B82
:10021800F1D1394A1278022AE8D0032A07D0012AF4
:10022800E9D136498A6942F480528A61E3E7344960
:100238008A6942F004028A61DDE72F4A1278022AAD
:100248000FD0032A19D0012AD7D127498A6942F049
:1002580080028A6101F580618A6942F480528A616C
:10026800CBE727498A6942F004028A61A1F58061D7
:100278008A6942F480528A61BFE721498A6942F05B
:1002880004028A61A1F500618A6942F080028A61EC
:10029800B3E7194B1B78012B13D0022BAFD1174AA8
:1002A800936943F08053936102F58062936943F444
:1002B80080239361A2F50062936943F4000393617C
:1002C8009DE70E4A936943F48053936102F5806277
:1002D800936943F004039361A2F50062936943F0C4
:1002E800800393618BE700BF0004024000000020F8
:1002F80020000020210000202200002000080240E9
:10030800000C02401C49D1F8302842F00403C1F81F
:1003180030381A4BD3F8000840F08070C3F8000852
:10032800D3F8080840F08070C3F8080842F00602C5
:10033800C1F83028D3F8002442F48042C3F80024DE
:10034800D3F8082442F48042C3F808240C4A136BFB
:1003580043F008031363A2F53052136843F0100307
:100368001360084B9A6842F010029A60DA6842F00B
:100378001002DA60704700BF0030024000000240FF
:10038800003802400004024030B482B03D4CD4F83A
:10039800104414F4007F30D10024009402E0009C43
:1003A80001340094009CB4F5FA6FF8DB354CD4F8AE
:1003B800104414F4007F22D11C7804BB0478013463
:1003C8000470304CD4F8185845F08055C4F81858C3
:1003D800D4F8185C45F48025C4F8185CD4F818548F
:1003E80045F40005C4F818540478042C02D00124FC
:1003F8001C7004E001240470F9E700241C70224BEF
:100408001B6913F4807F38D10023019302E0019B1C
:1004180001330193019BB3F5FA6FF8DB1A4B1B69A3
:1004280013F4807F2BD113784BBB164BD3F81848A5
:1004380044F08054C3F81848D3F8184C44F4802486
:10044800C3F8184CD3F8184444F40004C3F818440B
:100458000B780133DBB20B70042B05D00B78032B20
:1004680005D0012313700AE001230B70F6E7037827
:10047800032BF6D101230B70F3E70023137002B0AE
:1004880030BC70470000024000040240DFF834D05E
:100498000D480E490E4A002302E0D458C4500433D4
:1004A800C4188C42F9D30B4A0B4C002301E01360AB
:1004B8000432A242FBD3FFF78BFE00F011F8FFF7DE
:1004C80091FE704700000220000000200400002078
:1004D800500500080400002024000020FEE700006A
:1004E80070B50D4D0D4C641BA4100026A64209D111
:1004F8000B4D0C4C00F018F8641BA4100026A64203
:1005080005D170BD55F8043B98470136EEE755F81C
:10051800043B98470136F2E74805000848050008FB
:10052800480500084C050008F8B500BFF8BC08BC31
:100538009E467047F8B500BFF8BC08BC9E46704799
:04054800BD010008E9
:04054C009901000809
:0405500001000000A6
:040000050800049556
:00000001FF
