:020000040800F2
:10000000000002201D1000086D1000086D1000088F
:100010006D1000086D1000086D1000080000000051
:100020000000000000000000000000006D1000084B
:100030006D100008000000006D1000086D10000831
:100040006D1000086D1000086D1000086D1000089C
:100050006D1000086D1000086D1000086D1000088C
:100060006D1000086D1000086D1000086D1000087C
:100070006D1000086D1000086D1000086D1000086C
:100080006D1000086D1000086D10000800000000E1
:100090000000000000000000000000006D100008DB
:1000A0006D1000086D0E00086D1000086D1000083E
:1000B0006D1000086D1000086D1000086D1000082C
:1000C0006D1000086D1000086D1000086D1000081C
:1000D0006D1000086D1000086D1000080000000091
:1000E0006D1000086D1000086D1000080000000081
:1000F0000000000000000000000000006D1000087B
:10010000000000006D1000086D1000086D10000860
:1001100000000000000000000000000000000000DF
:100120006D1000086D1000086D1000086D100008BB
:100130006D1000080000000000000000000000003A
:100140000000000000000000000000006D1000082A
:100150006D1000086D1000086D1000086D1000088B
:100160006D1000086D100008000000000000000085
:10017000000000000000000000000000000000007F
:10018000000000006D1000080000000000000000EA
:080190006D1000086D1000085D
:1001980081F0004102E000BF83F0004330B54FEA30
:1001A80041044FEA430594EA050F08BF90EA020F9D
:1001B8001FBF54EA000C55EA020C7FEA645C7FEA30
:1001C800655C00F0E2804FEA5454D4EB5555B8BF53
:1001D8006D420CDD2C4480EA020281EA030382EAC4
:1001E800000083EA010180EA020281EA0303362D56
:1001F80088BF30BD11F0004F4FEA01314FF4801C29
:100208004CEA113102D0404261EB410113F0004F3A
:100218004FEA03334CEA133302D0524263EB4303F1
:1002280094EA050F00F0A780A4F10104D5F1200E8F
:100238000DDB02FA0EFC22FA05F2801841F10001EA
:1002480003FA0EF2801843FA05F359410EE0A5F1BE
:1002580020050EF1200E012A03FA0EFC28BF4CF0EF
:10026800020C43FA05F3C01851EBE37101F00045A5
:1002780007D54FF0000EDCF1000C7EEB00006EEBB2
:100288000101B1F5801F1BD3B1F5001F0CD349083C
:100298005FEA30004FEA3C0C04F101044FEA445293
:1002A80012F5800F80F09A80BCF1004F08BF5FEA1A
:1002B800500C50F1000041EB045141EA050130BDFA
:1002C8005FEA4C0C404141EB0101013C28BFB1F50C
:1002D800801FE9D291F0000F04BF01460020B1FA57
:1002E80081F308BF2033A3F10B03B3F120020CDA2A
:1002F8000C3208DD02F1140CC2F10C0201FA0CF008
:1003080021FA02F10CE002F11402D8BFC2F1200C6C
:1003180001FA02F120FA0CFCDCBF41EA0C01904022
:10032800E41AA2BF01EB0451294330BD6FEA04046B
:100338001F3C1CDA0C340EDC04F11404C4F1200256
:1003480020FA04F001FA02F340EA030021FA04F368
:1003580045EA030130BDC4F10C04C4F1200220FABF
:1003680002F001FA04F340EA0300294630BD21FAFD
:1003780004F0294630BD94F0000F83F4801306BFC3
:1003880081F480110134013D4EE77FEA645C18BFB7
:100398007FEA655C29D094EA050F08BF90EA020F4E
:1003A80005D054EA000C04BF1946104630BD91EA46
:1003B800030F1EBF0021002030BD5FEA545C05D149
:1003C8004000494128BF41F0004130BD14F5800488
:1003D8003CBF01F5801130BD01F0004545F0FE41FC
:1003E80041F470014FF0000030BD7FEA645C1ABF31
:1003F800194610467FEA655C1CBF0B46024650EA68
:10040800013406BF52EA033591EA030F41F4002193
:1004180030BD00BF90F0000F04BF0021704730B519
:100428004FF4806404F132044FF000054FF00001EE
:1004380050E700BF90F0000F04BF0021704730B5AF
:100448004FF4806404F1320410F0004548BF404284
:100458004FF000013EE700BF42004FEAE2014FEAD9
:1004680031014FEA02701FBF12F07F4393F07F4FB4
:1004780081F06051704732F07F4208BF704793F0B7
:100488007F4F04BF41F40021704730B54FF46074CA
:1004980001F0004521F000411CE700BF50EA0102CD
:1004A80008BF704730B54FF000050AE050EA010276
:1004B80008BF704730B511F0004502D5404261EBE6
:1004C80041014FF4806404F132045FEA915C3FF427
:1004D800D8AE4FF003025FEADC0C18BF03325FEAC4
:1004E800DC0C18BF033202EBDC02C2F1200300FA75
:1004F80003FC20FA02F001FA03FE40EA0E0021FA9A
:1005080002F11444BDE600BF70B54FF0FF0C4CF487
:10051800E06C1CEA11541DBF1CEA135594EA0C0F39
:1005280095EA0C0F00F0DEF82C4481EA030621EA74
:100538004C5123EA4C5350EA013518BF52EA0335AF
:1005480041F4801143F4801338D0A0FB02CE4FF061
:100558000005E1FB02E506F00042E0FB03E54FF091
:100568000006E1FB03569CF0000F18BF4EF0010E89
:10057800A4F1FF04B6F5007F64F5407404D25FEA85
:100588004E0E6D4146EB060642EAC62141EA555138
:100598004FEAC52040EA5E504FEACE2EB4F1FD0C7A
:1005A80088BFBCF5E06F1ED8BEF1004F08BF5FEAF8
:1005B800500E50F1000041EB045170BD06F00046AA
:1005C80046EA010140EA020081EA0301B4EB5C0457
:1005D800C2BFD4EB0C0541EA045170BD41F480114F
:1005E8004FF0000E013C00F3AB8014F1360FDEBF74
:1005F800002001F0004170BDC4F10004203C35DA50
:100608000C341BDC04F11404C4F1200500FA05F3D2
:1006180020FA04F001FA05F240EA020001F0004273
:1006280021F0004110EBD37021FA04F642EB0601E9
:100638005EEA430E08BF20EAD37070BDC4F10C0413
:10064800C4F1200500FA04F320FA05F001FA04F2D7
:1006580040EA020001F0004110EBD37041F10001C3
:100668005EEA430E08BF20EAD37070BDC4F12005CE
:1006780000FA05F24EEA020E20FA04F301FA05F236
:1006880043EA020321FA04F001F0004121FA04F2DE
:1006980020EA020000EBD3705EEA430E08BF20EAAE
:1006A800D37070BD94F0000F0FD101F000464000E8
:1006B80041EB010111F4801F08BF013CF7D041EA6A
:1006C800060195F0000F18BF704703F0004652006E
:1006D80043EB030313F4801F08BF013DF7D043EA3F
:1006E8000603704794EA0C0F0CEA135518BF95EAF5
:1006F8000C0F0CD050EA410618BF52EA4306D1D17C
:1007080081EA030101F000414FF0000070BD50EA9A
:10071800410606BF1046194652EA430619D094EA24
:100728000C0F02D150EA013613D195EA0C0F05D10E
:1007380052EA03361CBF104619460AD181EA030162
:1007480001F0004141F0FE4141F470014FF000001A
:1007580070BD41F0FE4141F4780170BD70B54FF0B5
:10076800FF0C4CF4E06C1CEA11541DBF1CEA135535
:1007780094EA0C0F95EA0C0F00F0A7F8A4EB050417
:1007880081EA030E52EA03354FEA013100F088800E
:100798004FEA03334FF0805545EA131343EA1263D7
:1007A8004FEA022245EA111545EA10654FEA00268C
:1007B8000EF000419D4208BF964244F1FD0404F545
:1007C800407402D25B084FEA3202B61A65EB0305A1
:1007D8005B084FEA32024FF480104FF4002CB6EB5E
:1007E800020E75EB030E22BFB61A754640EA0C00DE
:1007F8005B084FEA3202B6EB020E75EB030E22BF1E
:10080800B61A754640EA5C005B084FEA3202B6EB5E
:10081800020E75EB030E22BFB61A754640EA9C001D
:100828005B084FEA3202B6EB020E75EB030E22BFED
:10083800B61A754640EADC0055EA060E18D04FEAAB
:10084800051545EA16754FEA06164FEAC30343EA4B
:1008580052734FEAC2025FEA1C1CC0D111F4801F18
:100868000BD141EA00014FF000004FF0004CB6E711
:1008780011F4801F04BF01430020B4F1FD0C88BFB0
:10088800BCF5E06F3FF6AFAEB5EB030C04BFB6EBBB
:10089800020C5FEA500C50F1000041EB045170BDAE
:1008A8000EF0004E4EEA113114EB5C04C2BFD4EBDB
:1008B8000C0541EA045170BD41F480114FF0000E5F
:1008C800013C90E645EA060E8DE60CEA135594EADB
:1008D8000C0F08BF95EA0C0F3FF43BAF94EA0C0FDE
:1008E8000AD150EA01347FF434AF95EA0C0F7FF453
:1008F80025AF104619462CE795EA0C0F06D152EAA7
:1009080003353FF4FDAE1046194622E750EA41068A
:1009180018BF52EA43067FF4C5AE50EA41047FF49B
:100928000DAF52EA43057FF4EBAE12E74FEA4102FE
:10093800B2F1E04324BFB3F5001CDCF1FE5C0DD935
:1009480001F0004C4FEAC0024CEA5070B2F1004F7F
:1009580040EB830008BF20F00100704711F0804F82
:1009680021D113F13872BCBF01F00040704741F447
:1009780080114FEA5252C2F11802C2F1200C10FA4B
:100988000CF320FA02F018BF40F001004FEAC1232F
:100998004FEAD32303FA0CFC40EA0C0023FA02F3D3
:1009A8004FEA4303CCE77FEA625307D150EA0133A9
:1009B8001EBF4FF0FE4040F44000704701F0004079
:1009C80040F0FE4040F40000704700BF10B5054CF1
:1009D800237833B9044B13B10448AFF300800123E3
:1009E800237010BD0000002000000000B8100008AF
:1009F80008B5034B1BB103490348AFF3008008BD9A
:100A08000000000004000020B8100008034AD2F8D3
:100A1800883043F47003C2F88830704700ED00E076
:100A280000B583B001230DF107027521D02000F035
:100A3800BDFA9DF80730682B03D0012003B05DF89C
:100A480004FB00226B21D02000F09EFA0722192116
:100A5800D02000F099FA00221C21D02000F094FA4E
:100A680000221B21D02000F08FFA0020E6E70000CA
:100A78002DE9F04385B00E236A463B21D02000F0D3
:100A880095FA9DF800309DF8010040EA032000B275
:100A9800394C20809DF802309DF8039049EA0329DB
:100AA8000FFA89F9A4F802909DF804309DF80580A2
:100AB80048EA03280FFA88F8A4F804809DF808305B
:100AC8009DF8097047EA03273FB2E7809DF80A308E
:100AD8009DF80B6046EA032636B226819DF80C3055
:100AE8009DF80D5045EA03252DB26581FFF7A2FC5C
:100AF8000022224BFFF708FDFFF718FFE060484689
:100B0800FFF798FC00221D4BFFF7FEFCFFF70EFFD6
:100B180020614046FFF78EFC0022184BFFF7F4FCDB
:100B2800FFF704FF60613846FFF784FC10A3D3E9A0
:100B38000023FFF713FEFFF7F9FEA0613046FFF729
:100B480079FC0BA3D3E90023FFF708FEFFF7EEFEBD
:100B5800E0612846FFF76EFC05A3D3E90023FFF701
:100B6800FDFDFFF7E3FE206205B0BDE8F08300BF9E
:100B780000000000006060401C0000200000103FE2
:100B880010B55A2000F08AF9002404E0054B185DDE
:100B980000F084F901340B2CF8DD0A2000F07EF90E
:100BA80010BD00BF1C00002000B583B000F01AF88B
:100BB80000F094F800F0BAF800F07AF900F01EF9A5
:100BC800FFF72EFFFFF754FFFFF7DAFF002301932B
:100BD800019A034B9A42F5DC019B01330193F7E735
:100BE8007F841E003B4A136823F0F80343F0800318
:100BF800136000239360374B9B6813F00C0FFAD1F6
:100C0800344A136823F080731360324B1B6813F067
:100C1800007FFAD12F4A136823F4102313602D4B59
:100C28001B6813F4003FFAD12A4B1A6822F4802279
:100C38001A601A6842F480321A60264B1B6813F453
:100C4800003FFAD0234B1A6822F480221A601A68EF
:100C580042F400221A6000225A605A6842F4800264
:100C68005A605A6822F03F0242F004025A605A68F9
:100C78006FF38E1242F4C0525A605A6822F440321E
:100C88005A605A6842F080625A609A6822F00302F9
:100C980042F002029A609A6822F0F0029A609A681A
:100CA80022F4E05242F480529A609A6822F4604238
:100CB8009A6009490A6822F0070242F003020A60B2
:100CC8001A6842F080721A60024B1B6813F0007FAA
:100CD800FAD0704700380240003C0240104A536C7A
:100CE80043F4003353640F4B9A6A6FF30F0242F0D8
:100CF8005F029A62DA6A40F2E732DA625A6942F0CF
:100D080001025A61DA6842F00102DA60064A4FF0DD
:100D1800007111601A6842F001021A60704700BF42
:100D2800003802400044014000E100E0304B1A6BFB
:100D380042F001021A635A6C42F001025A642D4AC9
:100D4800136823F47F0343F42A031360536A6FF391
:100D58000F0341F211110B435362274B1A6822F01B
:100D680001021A609A6A6FF30F0242F004029A6253
:100D7800DA6A40F2E732DA621A6842F080021A60F0
:100D88009A6922F0780242F068029A619A6922F41C
:100D9800F04242F4D0429A61DA6922F0780242F0D5
:100DA8006802DA61DA6922F4F04242F4D042DA6188
:100DB8005A6C42F400425A641A6A0A431A625A6B1D
:100DC8006FF30F025A639A6B6FF30F029A63DA6B31
:100DD8006FF30F02DA631A6C6FF30F021A645A6921
:100DE80042F001025A611A6842F001021A60704723
:100DF80000380240000002400000014082B0184B59
:100E08001A6B42F001021A631A6C42F400321A6437
:100E1800A3F560531A6822F030021A601A6842F08B
:100E280020021A601A6A22F470621A621A6A42F47C
:100E3800E0621A62A3F5DE3341F288329A6042F228
:100E48000802DA600023019302E0019B0133019359
:100E5800019A42F20F739A42F7DD02B0704700BF61
:100E6800003802400B4B1B6913F0010F0CD0094AE4
:100E7800136923F001031361074B1A6801321A60E2
:100E88001B68B3F57A7F00D07047034B00221A60C5
:100E9800FAE700BF0044014040000020034B1B68F4
:100EA80013F0800FFAD0014B58607047004400409F
:100EB8001A4B1A6B42F002021A631A6C42F40012BF
:100EC8001A64A3F550531A6842F420221A605A682B
:100ED80042F440725A609A6842F470229A60DA6862
:100EE80042F4A022DA605A6A42F044025A62A3F538
:100EF800D8331A6842F400421A601A6822F4004291
:100F08001A605A6842F030025A60F022DA613122DF
:100F18001A621A6842F001021A60704700380240EB
:100F2800054A136843F480731360034B5B6913F03D
:100F3800010FFAD0704700BF00540040024A1368FE
:100F480043F400731360704700540040064B5B691C
:100F580013F0800FFAD0044B1861034B5B6913F050
:100F6800040FFAD0704700BF00540040054B1861C9
:100F7800044B5B6913F0020FFAD0024B5A699B6964
:100F8800704700BF0054004070B506460D46144631
:100F9800FFF7C6FF3046FFF7E9FF2846FFF7D6FF01
:100FA8002046FFF7D3FFFFF7C9FF70BDF8B5064627
:100FB8000F4615461C46FFF7B3FF3046FFF7D6FF2E
:100FC8003846FFF7C3FFFFF7ABFF701CC0B2FFF74F
:100FD800CDFF0F4A136843F480631360002009E0D3
:100FE8000B49496911F0400FFAD0094B1B692B5482
:100FF8000130C0B2A04208D2631E9842F0D1044A20
:10100800136823F480631360EAE7FFF797FFF8BDDE
:1010180000540040DFF834D00D480E490E4A002332
:1010280002E0D458C4500433C4188C42F9D30B4A94
:101038000B4C002301E013600432A242FBD3FFF7FC
:10104800E5FC00F011F8FFF7AFFD70470000022043
:101058000000002000000020D81000080000002038
:1010680044000020FEE7000070B50D4D0D4C641BD8
:10107800A4100026A64209D10B4D0C4C00F018F81C
:10108800641BA4100026A64205D170BD55F8043B88
:1010980098470136EEE755F8043B98470136F2E7E2
:1010A800D0100008D0100008D0100008D410000894
:1010B800F8B500BFF8BC08BC9E467047F8B500BF3D
:0810C800F8BC08BC9E4670470D
:0410D000F909000812
:0410D400D509000832
:040000050800101DC2
:00000001FF
