:020000040800F2
:100000000000022085040008D5040008D50400087B
:10001000D5040008D5040008D5040008000000003D
:10002000000000000000000000000000D5040008EF
:10003000D504000800000000D5040008D50400081D
:10004000D5040008D5040008D5040008D50400082C
:10005000D5040008D5040008D5040008D50400081C
:10006000D5040008D5040008D5040008D50400080C
:10007000D5040008D5040008D5040008D5040008FC
:10008000D5040008D5040008D504000800000000CD
:10009000000000000000000000000000D50400087F
:1000A000D5040008D5040008D5040008D5040008CC
:1000B000D5040008D5040008D5040008D5040008BC
:1000C000D5040008D5040008D5040008D5040008AC
:1000D000D5040008D5040008D5040008000000007D
:1000E000D5040008D5040008D5040008000000006D
:1000F000000000000000000000000000D50400081F
:1001000000000000D5040008D5040008D50400084C
:1001100000000000000000000000000000000000DF
:10012000D5040008D5040008D5040008D50400084B
:10013000D5040008000000000000000000000000DE
:10014000000000000000000000000000D5040008CE
:10015000D5040008D5040008D5040008D50400081B
:10016000D5040008D50400080000000000000000CD
:10017000000000000000000000000000000000007F
:1001800000000000D504000800000000000000008E
:08019000D5040008D5040008A5
:1001980010B5054C237833B9044B13B10448AFF3B9
:1001A80000800123237010BD04000020000000001F
:1001B8002005000808B5034B1BB103490348AFF3FA
:1001C800008008BD0000000008000020200500088D
:1001D800034AD2F8883043F47003C2F88830704775
:1001E80000ED00E000B583B000F016F9F2E000235E
:1001F800009302E0009B01330093009BB3F5FA6F74
:10020800F8DB7D4BD3F8103413F4007F40F0EC801A
:100218007A4B1B78002B40F0E780794A137801333A
:10022800DBB21370744AD2F8181841F08051C2F842
:100238001818D2F8181C41F48021C2F8181CD2F8FA
:10024800181441F40001C2F81814042B03D06B4BA6
:1002580001221A70C8E06A4B01221A70F7E7019B65
:1002680001330193019BB3F5FA6FF8DB654B1B690A
:1002780013F4807F40F0AE80634B1B78002B40F076
:10028800A9805D4BD3F8182842F08052C3F818288B
:10029800D3F8182C42F48022C3F8182CD3F8182469
:1002A80042F40002C3F81824584A13780133DBB229
:1002B8001370042B0FD0554B1B78032B0FD0504BCA
:1002C8001B78012B13D0022B2BD0032B55D04E4B70
:1002D80001221A707EE0134601221A70EBE7484BA0
:1002E8001B78032BEBD1494B01221A70E7E7474AE9
:1002F8001278022A09D0032A0DD0012AE3D14449F1
:100308008A6942F480528A61DDE73E498A6942F08F
:1003180080028A61D7E73F498A6942F004028A610C
:10032800D1E73A4A1278022A0FD0032A19D0012AB3
:10033800CBD134498A6942F080028A6101F5806133
:100348008A6942F480528A61BFE732498A6942F079
:1003580004028A61A1F580618A6942F480528A6147
:10036800B3E72C498A6942F004028A61A1F5006169
:100378008A6942F080028A61A7E7244B1B78012B27
:1003880013D0022BA3D1224A936943F0805393617F
:1003980002F58062936943F480239361A2F50062B9
:1003A800936943F40003936191E7194A936943F40D
:1003B8008053936102F58062936943F0040393616B
:1003C800A2F50062936943F0800393617FE70E4BC7
:1003D80000221A70084BD3F8103413F4007F3FF44E
:1003E80006AF064B00221A70064B1B6913F4807F78
:1003F800EDD10023019335E70000024020000020E2
:1004080000000020000402402100002022000020FB
:1004180000080240000C0240164AD2F8303843F077
:100428000E03C2F83038144BD3F8002842F080721B
:10043800C3F80028D3F8002C42F01002C3F8002CAF
:10044800D3F8002442F48042C3F80024D3F80824E7
:1004580042F48042C3F80824D3F8082842F0807296
:10046800C3F80828D3F8082C42F01002C3F8082C67
:10047800704700BF0030024000000240DFF834D06F
:100488000D480E490E4A002302E0D458C4500433E4
:10049800C4188C42F9D30B4A0B4C002301E01360BB
:1004A8000432A242FBD3FFF793FE00F011F8FFF7E6
:1004B80099FE704700000220000000200400002080
:1004C800400500080400002024000020FEE700008A
:1004D80070B50D4D0D4C641BA4100026A64209D121
:1004E8000B4D0C4C00F018F8641BA4100026A64213
:1004F80005D170BD55F8043B98470136EEE755F82D
:10050800043B98470136F2E738050008380500082B
:10051800380500083C050008F8B500BFF8BC08BC61
:100528009E467047F8B500BFF8BC08BC9E467047A9
:04053800BD010008F9
:04053C009901000819
:0405400001000000B6
:040000050800048566
:00000001FF
