:020000040800F2
:1000000000000220D508000825090008250900087D
:10001000250900082509000825090008000000003E
:10002000000000000000000000000000250900089A
:10003000250900080000000025090008D104000877
:1000400025090008250900082509000825090008D8
:1000500025090008250900082509000825090008C8
:1000600025090008250900082509000825090008B8
:1000700025090008250900082509000825090008A8
:1000800025090008250900082509000800000000CE
:10009000000000000000000000000000E104000873
:1000A0002509000825090008250900082509000878
:1000B0002509000825090008250900082509000868
:1000C0002509000825090008250900082509000858
:1000D000250900082509000825090008000000007E
:1000E000250900082509000825090008000000006E
:1000F00000000000000000000000000025090008CA
:10010000000000002509000825090008250900084D
:1001100000000000000000000000000000000000DF
:1001200025090008250900082509000825090008F7
:100130002509000800000000000000000000000089
:100140000000000000000000000000002509000879
:1001500025090008250900082509000825090008C7
:100160002509000825090008000000000000000023
:10017000000000000000000000000000000000007F
:100180000000000025090008000000000000000039
:080190002509000825090008FB
:1001980010B5054C237833B9044B13B10448AFF3B9
:1001A80000800123237010BD000000200000000023
:1001B8007009000808B5034B1BB103490348AFF3A6
:1001C800008008BD0000000004000020700900083D
:1001D800034AD2F8883043F47003C2F88830704775
:1001E80000ED00E008B500F02BF800F08FF800F003
:1001F80013F900F045F900F0C5F900F02BFAFAE719
:1002080000B500F00700C0F1070CBCF1040F28BFCF
:100218004FF0040C031D062B0FD9C31E4FF0FF3EF1
:100228000EFA0CF021EA000199400EFA03FE22EAC8
:100238000E0241EA02005DF804FB0023EEE700002D
:1002480010B42D4CD4F8300840F00403C4F830380A
:100258002A4AD2F8003843F08073C2F80038284B95
:10026800196841F4A00141F040011960D2F808185A
:1002780041F08071C2F80818996841F4A00141F072
:1002880040019960D96841F4A00141F04001D9606A
:1002980040F00600C4F83008D2F8001441F4804158
:1002A800C2F80014D2F8081441F48041C2F80814C6
:1002B80014490A6B42F008020A63A1F530510A6832
:1002C80042F010020A60104A916841F010019160F2
:1002D800D16841F01001D1601A6842F400221A6016
:1002E8009A6842F440229A605A6A22F0F0025A62EE
:1002F8005DF8044B704700BF003002400000024028
:10030800000802400038024000040240404A1368D6
:1003180023F0F80343F080031360002393603C4B01
:100328009B6813F00C0FFAD1394A136823F08073D5
:100338001360374B1B6813F0007FFAD1344A1368F7
:1003480023F410231360324B1B6813F4003FFAD1D7
:100358002F4B1A6822F480221A601A6842F48032FD
:100368001A602B4B1B6813F4003FFAD0284B1A680D
:1003780022F480221A601A6842F400221A600022CD
:100388005A605A6842F480025A605A6822F03F0262
:1003980042F004025A605A686FF38E1242F4C05257
:1003A8005A605A6822F440325A605A6842F08062B1
:1003B8005A609A6822F0030242F002029A609A6830
:1003C80022F0F0029A609A6822F4E05242F48052D5
:1003D8009A609A6822F460429A609A6822F06052A1
:1003E80042F020529A609A6822F040429A60094985
:1003F8000A6822F0070242F003020A601A6842F013
:1004080080721A60024B1B6813F0007FFAD07047A5
:1004180000380240003C024008B5154A536C43F4CA
:1004280080435364A2F58032136923F0FF0343F03D
:10043800110313610F4B1A6842F440721A609A68EC
:1004480042F440729A60DA6842F44072DA600A4B09
:10045800D86800221146C0F30220FFF7D1FE000140
:10046800C0B2064B83F817034FF400021A6008BDA8
:1004780000380240003C014000ED00E000E100E0EF
:100488004FF0E0231A6922F001021A611A6942F05A
:1004980002021A611A6942F004021A615A6902F0EA
:1004A8007F4242F4BB3242F0FF025A619A6902F07D
:1004B8007F4242F4BB3242F0FF029A611A6942F06D
:1004C80001021A6170470000024A13680133136081
:1004D800704700BF64000020234B1B68234A526901
:1004E80012F4807F0BD0214A4FF48071516102F5DC
:1004F8004842126912F4807F13D11D4A13601B4AC7
:10050800526912F4007F2ED0184A4FF400715161DD
:1005180002F54842126912F4007F19D1154A136096
:10052800704713480168591A02689A1A042A05D9AB
:10053800B1F5FA6F06D3104A012111700C4A002157
:100548001160DCE70129F9D90C4A01211170F5E79E
:10055800084A12689B1A042B02D9094B01221A7007
:10056800044B00221A60704764000020003C0140E0
:10057800540000205C000020530000205800002098
:10058800600000202A4B1B785BB32A490A780132A5
:10059800294B83FB020313449B10C3EBC303D31AF9
:1005A800DBB20B70254B9A6942F400229A619A6972
:1005B80042F080629A619A6942F000629A619A698F
:1005C80042F080529A611E4A936943F40003936192
:1005D80002F50062936943F480239361144B00226F
:1005E8001A70184B1B78B3B112480378DBB216495E
:1005F80031F813309BB201335A4203F0030302F07F
:10060800030258BF53420278D2B29BB221F812308B
:100618000C4B00221A700D4B1B7843B10C4A13780F
:10062800B3FA83F35B091370084B00221A70704702
:1006380060000020520000209324499200080240E4
:10064800000402405800002044000020530000200D
:1006580038000020884B1B78002B00F03081864B37
:100668001B78DBB2854A32F81330DBB2844A127841
:1006780042B9022B37D0032B38D0012B39D140F6A1
:10068800C41200E000227E4B1B78002B40F0D28081
:10069800002A00F09C807B4B1B6877490978C9B217
:1006A800794850F821105B1A9342C0F00881724AC9
:1006B8001378DBB273490868734941F8230013784B
:1006C800DBB27248C35C1178C9B2B3FA83F35B0931
:1006D80043541378013B052B00F2F180DFE803F067
:1006E8000B1D2F41536540F27122CCE740F2811275
:1006F800C9E70022C7E7604B1B78DBB2634AD35CCB
:100708002BB1634A936943F4002393617047604AAD
:10071800936943F0080393617047574B1B78DBB22A
:100728005A4AD35C2BB15A4A936943F08063936168
:100738007047574A936943F48063936170474E4BFF
:100748001B78DBB2514AD35C2BB1514A936943F011
:100758000063936170474E4A936943F40063936161
:100768007047454B1B78DBB2484AD35C2BB1484AEB
:10077800936943F0805393617047454A936943F402
:100788008053936170473C4B1B78DBB23F4AD35C84
:100798002BB1404A936943F40003936170473D4A83
:1007A800936943F0800393617047334B1B78DBB246
:1007B800364AD35C2BB1384A936943F4802393615A
:1007C8007047354A936943F00403936170472A4A96
:1007D8001378DBB22D490020C8541378013B052B50
:1007E8006DD8DFE803F003090F151B21284A936928
:1007F80043F0080393617047254A936943F4806383
:1008080093617047224A936943F400639361704788
:100818001F4A936943F48053936170471D4A936953
:1008280043F08003936170471B4A936943F00403C4
:1008380093617047104A1378DBB214490020C854FA
:100848001378013B052B3AD8DFE803F003090F289A
:100858002E340F4A936943F00803936170470C4A9A
:10086800936943F4806393617047094A936943F439
:1008780000639361704700BF5200002044000020CD
:1008880038000020640000201C0000203C000020EC
:100898000008024000040240000C0240084A936924
:1008A80043F4805393617047064A936943F0800389
:1008B80093617047044A936943F004039361704756
:1008C8000008024000040240000C0240DFF834D067
:1008D8000D480E490E4A002302E0D458C450043390
:1008E800C4188C42F9D30B4A0B4C002301E0136067
:1008F8000432A242FBD3FFF76BFC00F011F8FFF7BC
:1009080071FC704700000220000000200000002059
:10091800900900080000002068000020FEE70000A1
:1009280070B50D4D0D4C641BA4100026A64209D1CC
:100938000B4D0C4C00F018F8641BA4100026A642BE
:1009480005D170BD55F8043B98470136EEE755F8D8
:10095800043B98470136F2E788090008880900082F
:10096800880900088C090008F8B500BFF8BC08BC65
:100978009E467047F8B500BFF8BC08BC9E46704755
:04098800BD010008A5
:04098C0099010008C5
:04000005080008D512
:00000001FF
