:020000040800F2
:1000000000000220A5050008F5050008F505000818
:10001000F5050008F5050008F505000800000000DA
:10002000000000000000000000000000F5050008CE
:10003000F505000800000000F5050008F5050008BA
:10004000F5050008F5050008F5050008F5050008A8
:10005000F5050008F5050008F5050008F505000898
:10006000F5050008F5050008F5050008F505000888
:10007000F5050008F5050008F5050008F505000878
:10008000F5050008F5050008F5050008000000006A
:10009000000000000000000000000000F50500085E
:1000A000F5050008F5050008F5050008F505000848
:1000B000F5050008F5050008F5050008F505000838
:1000C000F5050008F5050008F5050008F505000828
:1000D000F5050008F5050008F5050008000000001A
:1000E000F5050008F5050008F5050008000000000A
:1000F000000000000000000000000000F5050008FE
:1001000000000000F5050008F5050008F5050008E9
:1001100000000000000000000000000000000000DF
:10012000F5050008F5050008F5050008F5050008C7
:10013000F5050008000000000000000000000000BD
:10014000000000000000000000000000F5050008AD
:10015000F5050008F5050008F5050008F505000897
:10016000F5050008F505000800000000000000008B
:10017000000000000000000000000000000000007F
:1001800000000000F505000800000000000000006D
:08019000F5050008F505000863
:1001980010B5054C237833B9044B13B10448AFF3B9
:1001A80000800123237010BD000000200000000023
:1001B8004006000808B5034B1BB103490348AFF3D9
:1001C800008008BD00000000040000204006000870
:1001D800034AD2F8883043F47003C2F88830704775
:1001E80000ED00E000B58DB000238DF82F308DF8BC
:1001F8002E300793089309930A9300F029F913E026
:100208009DF82F300CAA02EB8303002243F8142C2C
:10021800874B00221A609DF82F20012A38D0022A25
:100228007AD0032A00F0BE80814B824A0DF12E015C
:100238000DF12F0000F03EF99DF82E30032BE7D882
:1002480001A252F823F000BF090200086102000869
:1002580075020008870200089DF82F300CAA02EBEF
:10026800830347F2305243F8142CD1E79DF82F301E
:100278000CAA02EB8303704A43F8142CC8E79DF8D4
:100288002F300CAA02EB83036C4A43F8142CBFE707
:100298006B4BD3F8181841F08051C3F81818D3F8ED
:1002A800181C41F48021C3F8181C66498B6943F077
:1002B80080038B610023019302E0019B01330193CA
:1002C8000CAB03EB820353F8143C01998B420AD917
:1002D8005B49D1F8101411F4007FEED1594909692E
:1002E80011F4807FE9D057498A6942F400028A6193
:1002F80000220292029A934296D9514AD2F81024C7
:1003080012F4007F04D14F4A126912F4807F8BD116
:10031800029A01320292EDE7494BD3F8181441F4DE
:100328000001C3F81814D3F8181C41F48021C3F84D
:10033800181C45498B6943F480538B610023039350
:1003480002E0039B013303930CAB03EB820353F8E6
:10035800141C039B99420AD9394BD3F8103413F46F
:10036800007FEED1374B1B6913F4807FE9D0364A02
:10037800936943F0805393610023049302E0049B44
:1003880001330493049B99427FF64EAF2C4BD3F86C
:10039800103413F4007FF2D12A4B1B6913F4807FC9
:1003A800EDD041E7264BD3F8181441F40001C3F807
:1003B8001814D3F8181841F08051C3F818182349B5
:1003C8008B6943F004038B610023059302E0059BCE
:1003D800013305930CAB03EB820353F8141C059B04
:1003E80099420AD9164BD3F8103413F4007FEED192
:1003F800144B1B6913F4807FE9D0144A936943F4C2
:10040800802393610023069302E0069B0133069341
:10041800069B99427FF608AF094BD3F8103413F4C2
:10042800007FF2D1074B1B6913F4807FEDD0FBE608
:10043800200000201C00002070110100F04902007B
:10044800000002400004024000080240000C024084
:10045800164AD2F8303843F00E03C2F83038144B3D
:10046800D3F8002842F08072C3F80028D3F8002C93
:1004780042F01002C3F8002CD3F8002442F4804262
:10048800C3F80024D3F8082442F48042C3F80824AF
:10049800D3F8082842F08072C3F80828D3F8082C4B
:1004A80042F01002C3F8082C704700BF0030024029
:1004B8000000024030B482B0354CD4F8104414F433
:1004C800007F21D10024009402E0009C01340094B4
:1004D800009D40F21354A542F7DD2D4CD4F810448A
:1004E80014F4007F12D1147884B904780134654279
:1004F80004F0030405F0030558BF6C42047000249F
:100508000C700124147001E000241470214A12694F
:1005180012F4807F0FD10022019202E0019A013289
:100528000192019C40F213529442F7DD194A126974
:1005380012F4807F02D002B030BC7047154A1269AD
:1005480012F4807F03D11A6801321A60F6E71C683A
:10055800114A944209D80A780132544202F003023F
:1005680004F0030458BF62420A701C680A4A9442A5
:100578000BD902780132544202F0030204F003045A
:1005880058BF6242027000220A7000221A60D2E745
:100598000000024000040240DF930400DFF834D07A
:1005A8000D480E490E4A002302E0D458C4500433C3
:1005B800C4188C42F9D30B4A0B4C002301E013609A
:1005C8000432A242FBD3FFF703FE00F011F8FFF755
:1005D80009FE7047000002200000002000000020F3
:1005E800600600080000002024000020FEE700004C
:1005F80070B50D4D0D4C641BA4100026A64209D100
:100608000B4D0C4C00F018F8641BA4100026A642F1
:1006180005D170BD55F8043B98470136EEE755F80B
:10062800043B98470136F2E75806000858060008C8
:10063800580600085C060008F8B500BFF8BC08BCFE
:100648009E467047F8B500BFF8BC08BC9E46704788
:04065800BD010008D8
:04065C0099010008F8
:04000005080005A545
:00000001FF
