:020000040800F2
:1000000000000220CD0500081D0600081D0600089E
:100010001D0600081D0600081D060008000000005F
:100020000000000000000000000000001D060008A5
:100030001D060008000000001D0600081D0600083F
:100040001D0600081D0600081D0600081D06000804
:100050001D0600081D0600081D0600081D060008F4
:100060001D0600081D0600081D0600081D060008E4
:100070001D0600081D0600081D0600081D060008D4
:100080001D0600081D0600081D06000800000000EF
:10009000000000000000000000000000F50400085F
:1000A0001D060008C10400081D0600081D06000802
:1000B0001D0600081D0600081D0600081D06000894
:1000C0001D0600081D0600081D0600081D06000884
:1000D0001D0600081D0600081D060008000000009F
:1000E0001D0600081D0600081D060008000000008F
:1000F0000000000000000000000000001D060008D5
:10010000000000001D0600081D0600081D0600086E
:1001100000000000000000000000000000000000DF
:100120001D0600081D0600081D0600081D06000823
:100130001D06000800000000000000000000000094
:100140000000000000000000000000001D06000884
:100150001D0600081D0600081D0600081D060008F3
:100160001D0600081D060008000000000000000039
:10017000000000000000000000000000000000007F
:10018000000000001D060008000000000000000044
:080190001D0600081D06000811
:1001980010B5054C237833B9044B13B10448AFF3B9
:1001A80000800123237010BD000000200000000023
:1001B8006806000808B5034B1BB103490348AFF3B1
:1001C800008008BD00000000040000206806000848
:1001D800034AD2F8883043F47003C2F88830704775
:1001E80000ED00E008B500F02BF800F03DF800F055
:1001F800B7F800F0E9F800F00FF900F0C5F9FCE7EE
:1002080000B500F00700C0F1070CBCF1040F28BFCF
:100218004FF0040C031D062B0FD9C31E4FF0FF3EF1
:100228000EFA0CF021EA000199400EFA03FE22EAC8
:100238000E0241EA02005DF804FB0023EEE700002D
:10024800074B1A6B42F002021A6306490A6822F445
:1002580070220A601A6B42F004021A63704700BFEA
:1002680000380240000402403B4A136823F0F803B8
:1002780043F08003136000239360374B9B6813F0AF
:100288000C0FFAD1344A136823F080731360324B91
:100298001B6813F0007FFAD12F4A136823F4102348
:1002A80013602D4B1B6813F4003FFAD12A4B1A68D0
:1002B80022F480221A601A6842F480321A60264BAF
:1002C8001B6813F4003FFAD0234B1A6822F48022EB
:1002D8001A601A6842F400221A6000225A605A68AA
:1002E80042F480025A605A6822F03F0242F0040247
:1002F8005A605A686FF38E1242F4C0525A605A68B4
:1003080022F440325A605A6842F080625A609A6811
:1003180022F0030242F002029A609A6822F0F00288
:100328009A609A6822F4E05242F480529A609A687D
:1003380022F460429A6009490A6822F0070242F0F2
:1003480003020A601A6842F080721A60024B1B6846
:1003580013F0007FFAD0704700380240003C02409A
:1003680008B5154A536C43F480435364A2F58032B0
:10037800136923F0F00343F0100313610F4B1A685D
:1003880042F400721A609A6842F400729A60DA685D
:1003980042F40072DA600A4BD86800221146C0F3B2
:1003A8000220FFF72DFF0001C0B2064B83F81703A8
:1003B8004FF400021A6008BD00380240003C0140BA
:1003C80000ED00E000E100E0104A536C43F4003314
:1003D80053640F4B9A6A6FF30F0242F05F029A62FE
:1003E800DA6A40F2E732DA625A6942F001025A6187
:1003F800DA6842F00102DA60064A4FF000711160D3
:100408001A6842F001021A60704700BF00380240C3
:100418000044014000E100E0254B1A6B42F0010264
:100428001A631A6C42F001021A64224A136823F014
:100438000F0343F00A031360136A23F0FF0343F02A
:10044800110313624FF080431A6822F001021A6008
:100458009A6A6FF30F0242F002029A62DA6A40F275
:100468001F32DA621A6842F080021A609A6922F032
:10047800780242F068029A619A6922F4F04242F4E2
:10048800D0429A611A6A42F011021A625A6B6FF3EB
:100498000F025A639A6B6FF30F029A635A6942F01C
:1004A80001025A611A6842F001021A60704700BFDF
:1004B80000380240000002400A4B1B6913F0010F8C
:1004C8000FD0084A136923F001031361064B1A6819
:1004D80001321A601B68B3F57A7F02D3024B0022FF
:1004E8001A6070470044014028000020104B1B6828
:1004F800104A4FF40071516102F54842126912F432
:10050800007F05D10C4A126882B90B4A1360704704
:10051800094A126852B1084A12689B1A042B02D978
:10052800064B01221A70044B00221A60704700BF64
:1005380028000020003C014020000020240000206A
:10054800104B1B78013B032B03D8DFE803F00D04A5
:10055800070A002109E04FF4C87106E04FF416714C
:1005680003E040F21F3100E0C8214FF08042536B96
:100578006FF30F030B435363936B6FF30F030B433B
:10058800936370471C00002008B50B4B1B7803B918
:1005980008BD0A490A780132094B83FB02035B1044
:1005A80003EB8303D31ADBB20B70034B00221A70E0
:1005B800FFF7C6FFECE700BF240000201C00002066
:1005C80067666666DFF834D00D480E490E4A002388
:1005D80002E0D458C4500433C4188C42F9D30B4AEF
:1005E8000B4C002301E013600432A242FBD3FFF757
:1005F800EFFD00F011F8FFF7F5FD7047000002204D
:1006080000000020000000208806000800000020EC
:100618002C000020FEE7000070B50D4D0D4C641B4A
:10062800A4100026A64209D10B4D0C4C00F018F876
:10063800641BA4100026A64205D170BD55F8043BE2
:1006480098470136EEE755F8043B98470136F2E73C
:100658008006000880060008800600088406000856
:10066800F8B500BFF8BC08BC9E467047F8B500BF97
:08067800F8BC08BC9E46704767
:04068000BD010008B0
:0406840099010008D0
:04000005080005CD1D
:00000001FF
